:020000040800F2
:10000000784F0020990100081B2B0008A127000849
:10001000192B0008BD0B0008C932000800000000C1
:1000200000000000000000000000000001010008C6
:10003000D10B00080000000045010008F92D000860
:10004000B3010008B3010008B3010008B3010008C0
:10005000B3010008B3010008B3010008B3010008B0
:10006000B3010008B3010008B3010008B3010008A0
:10007000B3010008B3010008B3010008B301000890
:10008000B3010008B3010008B3010008B301000880
:10009000B3010008B3010008B3010008D30B000846
:1000A000B3010008B3010008B3010008B301000860
:1000B000B3010008B3010008A12E0008B301000835
:1000C000B3010008B3010008B3010008B301000840
:1000D000B3010008B3010008BD320008B3010008F5
:1000E000B3010008B3010008B3010008DFF80CD029
:1000F00000F0E8FC0048004795470008784F0020D2
:10010000224B19680868B0E8F00F80F30988BFF344
:100110006F8F4FF0000080F311884EF00D0E704786
:100120000000000006480068006880F3088862B696
:1001300061B6BFF34F8FBFF36F8F00DF00BF00BF0B
:1001400008ED00E0EFF30980BFF36F8F0F4B1A68E3
:1001500020E9F00F106008B54FF0500080F31188CF
:10016000BFF34F8FBFF36F8F06F09EFB4FF0000081
:1001700080F31188BDE8084019680868B0E8F00FFE
:1001800080F30988BFF36F8F704700BF9C00002089
:10019000EFF3058070470000064880470648004797
:1001A000FEE7FEE7FEE7FEE7FEE7FEE7FEE7FEE727
:1001B000FEE7FEE79D2E0008ED000008202A04DB84
:1001C000203A21FA02F00021704721FA02F3D040D0
:1001D000C2F12002914008431946704740EA0103EA
:1001E0009B0703D009E008C9121F08C0042AFAD2ED
:1001F00003E011F8013B00F8013B521EF9D27047B1
:10020000D2B201E000F8012B491EFBD27047002258
:10021000F6E710B513460A4604461946FFF7F0FF05
:10022000204610BD30B505462A460B4612F8010B94
:1002300013F8014B08B1A042F8D01CB1002802D03D
:100240006D1CF1E7284630BD421C10F8011B002947
:10025000FBD1801A7047F0B480EA0102D40F42004B
:10026000B2EB410F02D20246084611464A0042D084
:10027000C30DDDB2C1F3C752AD1A202D35DAC1F37B
:10028000160141F4000204B15242C5F1200602FAFF
:1002900006F12A411044B3EBD05F23D0C4B1012D45
:1002A000A0EBC35009DCF0BC4FF0004202EAC3529D
:1002B000DBB200F5000000F022BB400000F18070CE
:1002C00000EBC350A0F1807040EAD170490009E012
:1002D000490841EAC071A0EBC35000F50000400896
:1002E00000EBC350F0BC00F001BB6142012202EB05
:1002F0004101001BF6E7F0BC704781F00041AAE71E
:1003000080F00040A7E780EA010210B502F0004348
:10031000400022D04A001FD0010E01EB1261C0F351
:100320005600C2F3560240F4000042F40002A0FB63
:10033000022000047F39140400D0401C50EA12400F
:1003400001D44000491EC2B20C0604EBD010401C80
:100350004008802A02D003E0002010BD20F00100F8
:10036000002900DA0020184310BD30B480EA0102F1
:1003700002F0004530F0004221F0004013D090B16F
:10038000C30DD40DC2F31601C0F31600E41A41F4F4
:10039000000140F400027D34914201D3641C00E06E
:1003A0004900002C02DA30BC002070474FF40000F6
:1003B0000023914201D3891A034340084FEA4101C7
:1003C000F7D151B1914202D14FF0004105E002D284
:1003D0004FF0010101E06FF0010103EBC45028442C
:1003E00030BC00F083BA420005D0C0F3C75252427D
:1003F000914201DC0020704700EBC15070472DE9AD
:10040000FE4F804681EA0300C00F0C46009021F0A9
:10041000004123F00045B8EB0200A94105D2404657
:10042000214690461C460B46024623F000401043EE
:1004300047D0270DC7F30A00C3F30A510290401AB0
:10044000019040286BDAC3F3130040F4801B00983E
:10045000924620B10023D2EB030A63EB0B0B019809
:100460005946C0F14002504600F01FFA06460D46BC
:1004700050465946019A00F027FA10EB08006141F6
:10048000002487EA115284EAE7731A4340D0009AA5
:1004900062B3019A012A4FEA075215DC001B61EB97
:1004A00002014FF0004202EA0752CDE90042001C6F
:1004B00041F5801132462B4600F05EFA03B0BDE8EC
:1004C000F08F40462146F9E7001B61EB0201001C5A
:1004D00041F5801300185B412018A2F5001747EB87
:1004E000030140EAD570B6196D4111E06D084FEA7D
:1004F000360645EAC0754FEA0752001B61EB020160
:10050000001C41F5801149084FEA300000195141A3
:1005100032462B4603B0BDE8F04F00F01EBA0098FB
:10052000012240000023D0EB020263EBE07300984D
:1005300021464FEAE074B8EB000061EB0401E9E703
:1005400083F000435BE781F0004158E72DE9FE4F5F
:1005500081EA030404F0004421F0004100944FF0CC
:10056000000B23F0004350EA01045ED052EA03047A
:100570005BD0C3F30A54C1F30A552C44A4F2F334FC
:100580000194A0FB0254C1F3130141F48011C3F3A1
:10059000130343F4801301FB024400FB034E840A5F
:1005A000970A44EA815447EA8357A4FB07680295F7
:1005B0008D0A05FB07854FEA932C04FB0C54270595
:1005C000029D4FEA065847EA1637B5EB08056EEB71
:1005D000070C870E920E47EA811742EA8312A7FBA7
:1005E0000201B6EB0B0164EB00042B0D43EA0C3364
:1005F0005E1844EB1C50DA465146E7FB0201C5F396
:1006000013044FEA0B3343EA14534FEA0432019CBC
:1006100043EA0603A4F10C040294009CCDE900B463
:1006200000F0AAF903B0BDE8F08F00200146F9E719
:100630002DE9F04D81EA030404F0004B21F0004560
:1006400014464FF0000A23F0004150EA050220D082
:1006500054EA01021DD0C5F30A570246C5F313033D
:10066000C1F31300C1F30A5640F4801543F480131C
:10067000A7EB0608101BD64608F2FD3873EB050001
:1006800002D308F1010801E092185B41B8F1000FB4
:1006900003DA00200146BDE8F08D00204FF4801100
:1006A000064684460EE0171B73EB050705D3121BA5
:1006B00063EB050306434CEA010C49084FEA30009E
:1006C00092185B4150EA0107EDD152EA030012D0C3
:1006D00082EA040083EA0501084305D0101BAB4100
:1006E00006D20122002306E000224FF0004302E080
:1006F0006FF0010253101AEB06004CEB085110EB9F
:100700000A0041EB0B01BDE8F04D00F026B996233D
:100710000022114600F0F3B80EB540F233410291C9
:100720000021CDE900110A460B4600F025F903B07F
:1007300000BD00F0004220F00040C10DC0F31600E3
:1007400040F400007F2901DA00207047962903DC7D
:10075000C1F19601C84001E096398840002AF4D0E2
:100760004042704720F00040C10DC0F3160040F435
:1007700000007F2901DA00207047962903DCC1F1CF
:100780009601C840704796398840704700F0004293
:1007900030F000400AD0C10D01F56071C0F31600C1
:1007A00042EA0151C2084007114370470020014648
:1007B0007047000030B5041E71F1000404DB4FF0F7
:1007C0000044404264EB0101141E73F1000405DB98
:1007D0001C464FF00043524263EB04038B4208BFB8
:1007E000824230BD01F0004330B421F0004150EAB4
:1007F000010206D00A0DA2F56072C1F31301002AAE
:1008000002DC30BC00207047440F44EAC104C10040
:10081000E01830BC00EBC25000F068B830B50B46B1
:10082000014600202022012409E021FA02F59D4220
:1008300005D303FA02F5491B04FA02F52844151EF4
:10084000A2F10102F1DC30BD2DE9F05F0546002088
:1008500092469B4688460646814640241BE0284631
:10086000414647462246FFF7A9FC53465A46C01A5E
:10087000914110D311461846224600F016F82D1A61
:1008800067EB01084F4622460120002100F00DF8D9
:1008900017EB00094E41201EA4F10104DFDC48469D
:1008A00031462A464346BDE8F09F202A04DB203A21
:1008B00000FA02F1002070479140C2F1200320FAB3
:1008C00003F3194390407047202A06DBCB17203AE8
:1008D00041FA02F043EAE07306E041FA02F3D04045
:1008E000C2F1200291400843194670470029A8BF71
:1008F0007047401C490008BF20F00100704710B449
:10090000B0FA80FC00FA0CF050EA010404BF10BCFD
:10091000704749B1CCF1200421FA04F411FA0CF12A
:1009200018BF012121430843A3EB0C01CB1D4FEA63
:1009300000614FEA102042BF002010BC704700EB5E
:10094000C35010440029A4BF10BC7047401C49008C
:1009500008BF20F0010010BC704710B5141E73F1E1
:10096000000408DA401C41F1000192185B411A436F
:1009700001D120F0010010BD2DE9F04D92469B46BB
:1009800011B1B1FA81F202E0B0FA80F22032904661
:10099000FFF78BFF04460F4640EA0A0041EA0B01CD
:1009A00053465A46084313D0114653EA010019D062
:1009B000C8F140025046FFF701FC05460E4650467E
:1009C00059464246FFF771FF084305D0012004E075
:1009D00020463946BDE8F08D0020054346EAE07622
:1009E0002C4337430A986305E40AA0EB0800002271
:1009F000FD0A44EA47540A3002D500200146E9E7DF
:100A0000010510196941DDE9084500196941BDE892
:100A1000F04DA2E770B521F0004303430CD0C1F3C1
:100A20000A550024D5EB040564EB0403D617AD1A70
:100A3000B34102DB0020014670BD201841EB02519A
:100A400070BD0EB5C10F80EAE0700844CA070021EE
:100A500040F233438DE80E000A460B46FFF78CFF49
:100A600003B000BDC1F30A52C1F3130140F2FF33DA
:100A700041F480119A4202DA00200146704740F2A8
:100A800033439A42A2F2334202DC5242FFF796BB52
:100A9000FFF70BBF30B5041E71F1000404DB4FF00B
:100AA0000044404264EB0101141E73F1000405DBB5
:100AB0001C464FF00043524263EB0403994208BFC7
:100AC000904230BD064C074D06E0E06840F001035F
:100AD00094E8070098471034AC42F6D3FFF70AFBBE
:100AE000B4770008D477000870B5044600688168C0
:100AF000C943C90717D1816821F00101816000F065
:100B0000CFFC05460AE000BF00F0CAFC401B0228EB
:100B100004D920688068C043C00706D02068806878
:100B2000C043C007F0D0002070BDA06A40F01000A4
:100B3000A062E06A40F00100E062012070BD0000A8
:100B4000F8B500260446009600688168C943C907C5
:100B50002DD0816841F00101816016481649006876
:100B6000B0FBF1F000E0401E00900028FBD100F047
:100B700097FC054616E000BF00F092FC401B0228DF
:100B800010D920688068C043C0070BD0A06A40F02D
:100B90001000A062E06A40F00100E06284F8246086
:100BA0000120F8BD20688068C043C007E4D1002060
:100BB000F8BD00009800002040420F00FEE7000052
:100BC000024800210160416081607047D0360020FA
:100BD00070474FF4807000F05DBB72B6FEE7000016
:100BE000F8B500250446009590F8240001280BD0A4
:100BF000012084F824002046FFF776FF2046FFF707
:100C00009FFF060002D050E00220F8BDA06A20F449
:100C1000885040F00200A062022000F011FD25493A
:100C20000968B1FBF0F0400000E0401E0090002891
:100C3000FBD12068816841F00801816000F030FC40
:100C4000074608E000F02CFCC01B0A2803D92068E6
:100C50008068000715D4206880680007F2D42068F7
:100C6000816841F00401816000F01AFC074612E03F
:100C700000F016FCC01B0A280DD9206880684007C8
:100C800009D5A06A20F0020040F01000A06284F8AC
:100C900024500120F8BD206880684007E8D4A06A8D
:100CA00020F0020040F00100A06284F82450304699
:100CB000F8BD000098000020F8B50024009490F8DA
:100CC00024202546012A12D0012280F824204A68D7
:100CD0001F23072A0DD20668776B521E02EB820291
:100CE00093409F430B6893401F43776319E00220B2
:100CF000F8BD06680D2A0AD2376BD21F02EB8202BA
:100D000093409F430B6893401F43376309E0F76AA2
:100D10000D3A02EB820293409F430B6893401F43BE
:100D2000F7620A68072306680A2A0AD3F7680A3AAC
:100D300002EB420293409F438B6893401F43F7604E
:100D400008E0376902EB420293409F438B6893406F
:100D50001F4337610A68102A01D0112A20D1124B93
:100D600002689A4217D193681B0219D4936843F41E
:100D7000000393600968102912D10C490C4A0968D4
:100D8000B1FBF2F101EB8101490000E0491E009145
:100D90000029FBD104E0816A41F020018162012435
:100DA00080F824502046F8BD00240140980000201F
:100DB00040420F000068C06C704700002DE9F04110
:100DC0004FF0000704003D467ED0A06A002628B9F7
:100DD000E66284F82460204600F07EF82046FFF7A3
:100DE00083FEA16AC90600D420B1A06A40F01000B9
:100DF000A06269E0A16A21F4885141F00201A16278
:100E00006268E169237B0A4347EA43010A43A16818
:100E10004FF48077B94209D0012907D05FF0000173
:100E200094F814C0BCF1010F02D00AE03946F7E78C
:100E3000F3B1A36A43F02003A362E36A43F0010322
:100E4000E3622368D3F804C02CF4694C4CEA010C2B
:100E5000C3F804C021688B68DFF870C003EA0C0394
:100E600013438B60A168B9420BD0012909D00CE073
:100E7000DFF85CC0A3690CEB43330B4343F4006120
:100E8000DFE7218A0D05A5F580152168CB6A23F4DB
:100E900070032B43CB62216889680E4B1940914245
:100EA00008D1E662A16A21F0020141F00101A162CC
:100EB000BDE8F081A06A20F0020040F01000A062BE
:100EC000E06A40F00100E0620120F1E7FDF7E1FF98
:100ED00000E0FFFFFE0E1FFF00B585B0002100916E
:100EE00001910291039100680E49884217D10E4882
:100EF000816941F400718161816901F4007104919B
:100F0000816941F0040181618069694600F0040053
:100F10000490032000900190044800F0C7F905B048
:100F200000BD000000240140001002400008014004
:100F30002DE9F84300270D460446009700F0B0FA6B
:100F4000804620688168C90508D5A06A40F0200065
:100F5000A06284F824700120BDE8F8834168C905C7
:100F600003D4C06A10F4700F2AD0022000F068FB8E
:100F70003B490968B1FBF0F62068036939490B4227
:100F80004FEA61014FEAA1121FD1C3684FEA611C09
:100F900013EA0C0F19D103690B4225D1C068104226
:100FA00022D1142023E0681C0AD02DB100F078FA79
:100FB000A0EB0800A84203D920680068800725D567
:100FC000206800688007EED52DE003690B4202D14E
:100FD000C168114206D0026923490A4206D1C0689D
:100FE000084203D1542002E0292000E0FC204643BF
:100FF000009816E0681C11D02DB100F051FAA0EB5A
:101000000800A8420AD90098B04207D2A06A40F06E
:101010000400A06284F8247003209DE70098401C1F
:101020000090B042E6D321686FF012000860A06A19
:1010300040F40070A06220688068C0F34240072836
:101040000CD1207B50B9A06A20F48070A062A06A05
:10105000C00403D4A06A40F00100A06200207BE736
:1010600098000020244992244992240070B5044637
:1010700090F8240001280DD0012084F82400204697
:10108000FFF75EFD02004FF0000005D084F8240059
:10109000104670BD022070BDA16A40F20123994341
:1010A00041F48071A1621F4D23681F49AB4218D1E2
:1010B0000E6816F4702F14D0A66A46F48016A66245
:1010C0000E68760505D5A66A26F4005646F48056C5
:1010D000A662A66AF6040AD5E66A26F00606E66265
:1010E00006E0A66A26F48016A6625E68E9E7E0627A
:1010F00084F824006FF00200186020688368C3F34E
:101100004243072B05D1A84208D1096811F4702F7A
:1011100004D0816841F480118160B9E7816841F4AD
:10112000A001F9E7002801400424014010B504465D
:1011300090F82400012807D0012084F824002046DC
:10114000FFF7D2FC10B107E0022010BDA16A21F424
:10115000885141F00101A162002184F8241010BDE2
:1011600010B590F821100022022905D004218163D6
:1011700080F82020012010BD01680B6823F00E03C9
:101180000B6001680B6823F001030B6090F840309E
:10119000C46B012101FA03F3636080F8211080F829
:1011A0002020104610BD000010B590F8211000243A
:1011B000022903D00421816301243DE001680A680B
:1011C00022F00E020A6001680A6822F001020A6039
:1011D0001A4A0168914201D1012121E0174A1432D3
:1011E000914201D110211BE0144A2832914201D1D1
:1011F000891515E0114A3C32914201D189140FE062
:101200000E4A5032914202D14FF4803108E00B4A2D
:101210006432914202D14FF4801101E04FF08071AD
:10122000064A083A5160012180F82110002180F817
:101230002010416B01B18847204610BD08000240D4
:1012400070B5044600F02CF90546601C02D0044835
:101250000078044400F024F9401BA042FAD370BD8A
:101260008C00002010B5C00509D505A002F07EF85D
:10127000074901200870BDE8104004F073BD10BD9F
:101280006C6F73652070617065720D0A000000005C
:1012900040000020044910B50A68024202D00860EC
:1012A000FFF7E0FF10BD0000140401402DE9F84FE6
:1012B000DFF8B8910024A9F1040B23460F2709F1A8
:1012C000040AABF1040EC9E00125A5402A40AA4258
:1012D0007DD1674ED1F804C0ACEB0608B44532D0DE
:1012E00014DCBCF1030F3AD009DCBCF1000F2AD0AA
:1012F000BCF1010F1CD0BCF1020F31D11DE0BCF1DB
:10130000110F17D0BCF1120F2AD119E0B8F5881FC0
:1013100019D006DCB8F5803F15D0B8F5801F1FD175
:1013200011E0B8F5001F0ED0B8F5041F18D10AE07F
:10133000CB6815E0CB681B1D12E0CB6808330FE0CB
:10134000CB680C330CE08B682BB1012B4FF00803FA
:1013500003D0456104E0042302E0056100E00023BE
:10136000FF2A01D8064601E000F104064FEA840591
:1013700001D9A5F12005D6F8008007FA05FC28EA76
:101380000C0803FA05F548EA0508C6F800804D6820
:10139000ED0062D5374DAE6946F00106AE61AD692C
:1013A00024F0030605F001050095334D06EB050C0E
:1013B000DCF80850A607360F07FA06F825EA0805F4
:1013C000DFF8B880404503D14FF0000817E044E053
:1013D000DFF8AC80404502D14FF001080FE0DFF8A4
:1013E000A480404502D14FF0020808E0DFF8988061
:1013F000404502D14FF0030801E04FF0040808FA1D
:1014000006F848EA0508CCF808804D68D9F800606D
:10141000ED024D4601D5164300E096432E604D681F
:10142000DAF80060AD02554601D5164300E0964358
:101430002E604D68DBF80060AD035D4601D51643B4
:1014400000E096432E604D68DEF80060ED037546BF
:1014500001D5164300E096432E60641C0D682A46B1
:10146000E5407FF431AFBDE8F88F0000080401408B
:10147000000011100010024000000140000801406F
:10148000000C014000100140001401408068084039
:1014900000D0012070470AB1016170470904FBE7E1
:1014A00001488068704700008C0000200248816875
:1014B00002781144816070478C000020074810B505
:1014C000016841F010010160032000F0A7F80F202F
:1014D00000F006F800F050F8002010BD0020024097
:1014E00030B505461F4887B0C16941F00401C161AC
:1014F000C06906A900F00400009001A800F0FEF900
:101500000498B0B100F01AFA40001749174AB0FB2E
:10151000F1F11748491E0260416040F2E7320021B4
:10152000C0E903218160816100F054FD040003D013
:1015300015E000F003FAE8E70D4800F08DFD040027
:101540000DD11E2000F03CF8102D07D200222946B4
:101550001E2000F043F80748056000E0012407B0B2
:10156000204630BD0010024040420F0000080040FD
:101570007C020020900000200F4808B5816941F0EE
:1015800001018161816901F001010091C16941F0AE
:101590008051C161C069002200F0805000900F218D
:1015A000901E00F01BF80548416821F0E06141F011
:1015B0000071416008BD00000010024000000140C1
:1015C000002809DB00F01F02012191404009800042
:1015D00000F1E020C0F8001170470000F0B40E4B9D
:1015E0001B680C46C3F30223C3F10705042D00D981
:1015F0000425191D072901D2002300E0DB1E012666
:1016000006FA05F1491E214099409E40761E16407B
:101610003143F0BC01F0BABE0CED00E0064900F029
:10162000070208684FF6FF03184040EA0220034A09
:1016300010430860704700000CED00E00000FA0560
:1016400010B501460020234C012922D0022939D0AF
:1016500010291DD161682268D20119D51E48C1F335
:101660008342C903805C0AD561681B4AC1F34041CB
:10167000921E515C194AB2FBF1F1484301E018494E
:1016800048436168490203D440000321B0FBF1F0F4
:1016900010BD226AC2F30121012903D1920701D5AD
:1016A000C80310BD022905D1626A920702D549F626
:1016B000404010BD0329FCD121688903F9D54FF2C0
:1016C000244010BD00F04AF96168C1F38131491C22
:1016D0004900DBE700100240A476000800127A00FF
:1016E00000093D002DE9F84305460078354CC00758
:1016F00054D0E0690026C00008D4E06940F0805072
:10170000E061E069012600F0805000902E480168F9
:10171000C90512D40168804641F480710160FFF769
:10172000BFFE074605E000BFFFF7BAFEC01B6428F6
:1017300023D8D8F80000C005F6D5206A10F4407010
:1017400021D0A98801F4407181421CD0206A1F4930
:10175000012220F440700A6000220A602062C00763
:1017600011D0FFF79DFE074641F2883808E000BF20
:10177000FFF796FEC11B414502D90320BDE8F8835F
:10178000206A8007F4D5206A696820F44070084315
:1017900020621EB1E06920F08050E0612878800767
:1017A00005D56068A96820F4404008436060287847
:1017B000C00605D56068E96820F4800008436060D1
:1017C0000020DBE70010024000700040400442426D
:1017D0002DE9F0470F46050061D0434E306800F018
:1017E0000700B84209D2306820F007003843306063
:1017F000306800F00700B84251D128683B4C81079F
:1018000012D5400703D5606840F4E0606060287836
:10181000000703D5606840F4605060606068A968A4
:1018200020F0F000084360602878C00728D068687E
:10183000012810D02168022810D0890700292EDA4B
:10184000616821F0030101436160FFF729FE8046D2
:1018500041F288390DE021688903EFE78901EDE75E
:10186000FFF71EFEA0EB0801494502D90320BDE8A1
:10187000F0876068696800F00C00B0EB810FEFD171
:10188000306800F00700B8420BD9306820F007003C
:1018900038433060306800F00700B84201D00120C2
:1018A000E5E72878400705D56068E96820F4E0603E
:1018B000084360602878000706D56068296920F42D
:1018C000605040EAC100606000F058F86168084A62
:1018D000C1F30311515CC84006490860064800681E
:1018E000FFF7FEFD0020C2E700200240001002408A
:1018F000B476000898000020900000200F220260BB
:101900000C4A536803F003034360536803F0F00389
:101910008360536803F4E063C36052684FF4E0638C
:1019200003EAD20202610448006800F00700086080
:1019300070470000001002400020024004480549A2
:1019400000684968044AC1F30221515CC8407047ED
:101950009800002000100240C476000804480549A1
:1019600000684968044AC1F3C221515CC84070470D
:101970009800002000100240C47600080E4A51680A
:101980000E4801F00C03042B11D0082B0FD10C488A
:10199000C1F38343C903C05C0AD55168084AC1F347
:1019A0004041921E515C054A5043B0FBF1F0704734
:1019B00004494843704700000010024000127A00BA
:1019C0009276000800093D002DE9F84F040070D020
:1019D0002078C04DC00749D06868C0F38100012855
:1019E00007D06868C0F38100022809D16868C00385
:1019F00006D52868800339D560680028E7D035E02F
:101A00006068B0F5803F0BD010B1B0F5A02F11D0B9
:101A1000286820F480302860286820F4802002E0C4
:101A2000286840F480302860606890B1FFF738FD86
:101A300006460AE0286840F480202860F0E700BFEE
:101A4000FFF72EFD801B642873D828688003F7D524
:101A50000CE0FFF725FD064605E000BFFFF720FD7F
:101A6000801B6428F0D828688003F7D420789A4E29
:101A700080074FF001094FF0000839D5686810F071
:101A80000C0F07D06868C0F38100022809D168688C
:101A9000C00306D42868800714D52069012808D11E
:101AA00010E02069B0B1C6F80090FFF7F9FC0746D6
:101AB00005E00AE1FFF7F4FCC01B0228C4D828683F
:101AC0008007F7D52868616920F0F80040EAC10076
:101AD00028600DE0C6F80080FFF7E2FC074604E04E
:101AE000FFF7DEFCC01B022823D828688007F7D444
:101AF000207800072CD57948A169D9B1C0F80090A9
:101B0000FFF7CEFC074604E0FFF7CAFCC01B022823
:101B10000FD8686A8007F7D571484FF4FA5100680A
:101B2000B0FBF1F0009000BF0098411E0091FAD286
:101B30000EE080E0C0F80080FFF7B2FC074604E04A
:101B4000FFF7AEFCC01B022875D8686A8007F7D47F
:101B50002078400760D5E8690027C00008D4E8690C
:101B600040F08050E861E869012700F08050009063
:101B70005C480168C90513D40168834641F480714B
:101B80000160FFF78DFC824606E000BFFFF788FC8E
:101B9000A0EB0A0064284ED8DBF80000C005F5D59C
:101BA000E06801280AD008B1052813D0286A20F07F
:101BB00001002862286A20F0040002E0286A40F050
:101BC00001002862E06841F2883B98B1FFF768FCA9
:101BD00082460BE0286A40F004002862EEE700BF6E
:101BE000FFF75EFCA0EB0A0159455AD8286A800726
:101BF000F6D50CE0FFF754FC824605E0FFF750FCF9
:101C0000A0EB0A0159454CD8286A8007F6D41FB1C9
:101C1000E86920F08050E861E06988B36968C1F341
:101C20008101022944D00228C6F8608004D0FFF761
:101C300037FC044638E034E0FFF732FC074604E0A6
:101C4000FFF72EFCC01B02282BD828688001F7D490
:101C5000206AB0F5803F05D16868A16820F40030A3
:101C600008436860D4E908010843696821F47411E5
:101C700008436860C6F86090FFF712FC044606E06F
:101C800025E000BFFFF70CFC001B022809D82868DC
:101C90008001F7D51BE000BFFFF702FC001B022804
:101CA00002D90320BDE8F88F28688001F4D40EE043
:101CB0000128F7D06868226A00F48031914204D18B
:101CC000616A00F47010884201D00120EAE7002028
:101CD000E8E7000000100240000042428004424257
:101CE000980000200070004070B5040009D0606AC0
:101CF000002540B125616561A56294F8510040B1AD
:101D00000CE0012070BD6068B0F5827FF4D0E56121
:101D1000F2E784F85050204600F040F8022084F8A2
:101D200051002068016821F040010160A0882189EC
:101D300000F4827001F404410843A18901F40061B8
:101D40000843217C01F002010843217D01F00101DB
:101D50000843218B01F400710843217F01F0380111
:101D6000084394F8201001F080010843218D01F40C
:101D70000051084321680860A069042101EA10406D
:101D8000216848602068C16921F40061C16165650E
:101D9000012084F85100002070BD000000B585B01E
:101DA0000021009101910291039100680F4988423E
:101DB0001AD10F48816941F480518161816901F430
:101DC00080510491816941F0040181618069694613
:101DD00000F004000490A020009002200190032055
:101DE00003900448FFF762FA05B000BD00300140DF
:101DF00000100240000801402DE9F84F044690F819
:101E000050000026984615468A4601280CD0012726
:101E100084F85070FFF744FB814694F85100B346B4
:101E2000012804D002269AE00220BDE8F88FBAF11A
:101E3000000F6FD0002D6DD0032084F85100C4F83E
:101E400054B0C4F830A0A586E586C4F838B0A4F82C
:101E50003CB0A4F83EB0C4F844B0C4F840B0A068A8
:101E6000B0F5004F09D12068016821F04001016000
:101E70002068016841F480410160206801684906DA
:101E800003D4016841F040010160E068B0F5006FE3
:101E9000606803D058B3012D29D049E008B1012D65
:101EA0001FD1206B21680088C86006E02068816827
:101EB000890709D5216B0988C160206B801C2063CC
:101EC000E08E401EE0860CE0FFF7EAFAA0EB090185
:101ED000414503D3B8F1FF3F03D006E0B8F1000F4E
:101EE00003D0E08E0028E1D125E0032635E0206B09
:101EF00021680078087306E02068816889070AD5A0
:101F0000216B09780173206B401C2063E08E401E1A
:101F1000E0860DE01FE0FFF7C3FAA0EB09014145A1
:101F200003D3B8F1FF3F03D0DFE7B8F1000FDCD0F7
:101F3000E08E0028E0D14A464146204600F0ECFE03
:101F400008B120206065A06818B92068C168806861
:101F50000090606D08B1012601E084F8517084F8AA
:101F600050B0304661E770477047000070B590F898
:101F70003C20012A26D0012480F83C40022280F82F
:101F80003D2003685A689D6822F070060A68324353
:101F90005A600D4B02689A4208D0B2F1804F05D0CA
:101FA0000A4B9A4202D00A4B9A4204D1496825F062
:101FB00080031943916080F83D40002180F83C1077
:101FC000084670BD022070BD002C01400004004096
:101FD0000008004010B5040003D094F83D0010B193
:101FE00007E0012010BD002084F83C00204600F0EE
:101FF0001FF8022084F83D00211D206800F056FFE4
:10200000012084F8460084F83E0084F83F0084F8FC
:10201000400084F8410084F8420084F8430084F8CA
:10202000440084F8450084F83D00002010BD000005
:1020300008B500680649884208D10648816941F41C
:1020400000618161806900F40060009008BD0000BB
:10205000002C01400010024090F83D10012901D0F1
:1020600001207047022180F83D100168CA6842F0E3
:102070000102CA6000680B49884208D0B0F1804F65
:1020800005D00949884202D00849884204D18168B4
:1020900001F00701062903D0016841F00101016048
:1020A00000207047002C0140000400400008004060
:1020B00070B5044690F83C000025012817D0012691
:1020C00084F83C60022084F83D002068826822F099
:1020D000770222F47F4282600868502838D00DDCF5
:1020E00020284FD005DC90B3102811D14AE00220FF
:1020F00070BD302846D040280AD13BE060282FD060
:1021000070280DD0B0F5805F03D0B0F5005F12D01D
:10211000012584F83D60002084F83C00284670BD0D
:10212000CB68D1E90121206800F0F6FE20688168C3
:1021300041F0770109E0CB68D1E90121206800F086
:10214000EBFE2068816841F480418160E1E719E09D
:10215000CA684968206800F0F1FE5021206806E056
:10216000CA684968206800F0FAFE6021206800F023
:10217000DDFECEE7CA684968206800F0DFFE402136
:102180002068F4E7226801461046F0E7704770B512
:102190000446006801694FF00005C943890715D45A
:1021A000C168C943890711D4E91E01610120207764
:1021B000206880698007204602D0FFF7E7FF04E02F
:1021C00000F098F8204600F096F82577206801691D
:1021D000C943490717D4C168C943490713D46FF0ED
:1021E00004010161022020772068806910F4407F9B
:1021F000204602D0FFF7CAFF04E000F07BF820463B
:1022000000F079F8257720680169C943090716D4D9
:10221000C168C943090712D46FF0080101610420A5
:1022200020772068C0698007204602D0FFF7AEFF04
:1022300004E000F05FF8204600F05DF825772068A4
:102240000169C943C90617D4C168C943C90613D473
:102250006FF010010161082020772068C06910F438
:10226000407F204602D0FFF791FF04E000F042F8E3
:10227000204600F040F8257720680169C943C90766
:1022800008D1C168C943C90704D1891E016120462C
:1022900000F032F820680169C943090609D4C16811
:1022A000C943090605D46FF0800101612046FFF79C
:1022B0005AFE20680169C943490609D4C168C94367
:1022C000490605D46FF040010161204600F01EF878
:1022D00020680169C94389060BD4C168C9438906CE
:1022E00007D46FF0200101612046BDE87040FFF780
:1022F0003BBE70BD7047704700680349884201D1FA
:10230000FFF7D4B8704700000008004070477047DE
:1023100070470000F8B5016804460868CA684B6950
:1023200010F00F0F4FF0000559D003F0010602F432
:102330009077374365D0C10705D0D10503D5616CCF
:1023400041F001016164410705D5D90703D0616CF3
:1023500041F002016164810705D5D90703D0616CA2
:1023600041F004016164010707D502F02001314307
:1023700003D0616C41F008016164616C00293AD0BE
:10238000800604D5900602D5204600F082FE206823
:102390004069616CC0F38010090700D460B3204627
:1023A00000F050FE20684069400621D520681430B6
:1023B00050E8001F21F0400140E80012002AF5D14A
:1023C000E06BA8B16D494163E06BFEF7EDFE0028BC
:1023D00011D0E06B416B01B0BDE8F04008478306C7
:1023E0000FD593060DD52046BDE8F84000F051BE4C
:1023F0002046FFF78DFFF8BD2046FFF789FF656493
:10240000F8BD266B2023012E7CD1C6067AD5D606D0
:1024100078D508684868009048694FF00206400681
:1024200040D5E16B086840680004000CE8D0A28D3C
:102430008242E5D9E085886920282DD020680C30BB
:1024400050E8001F21F4807140E80012002AF5D105
:102450002068143050E8001F21F0010140E800120C
:10246000002AF5D12068143050E8001F21F0400107
:1024700040E80012002AF5D184F842302563206834
:102480000C3050E8001F21F0100140E80012002A33
:10249000F5D1E06BFEF764FE6663A08DE18D401A16
:1024A00081B22AE0A08DE18D401A81B2E08D002832
:1024B000A6D00029A4D022680C3252E8000F20F4E4
:1024C000907042E80007002FF5D12068143050E8E2
:1024D000002F22F0010240E80027002FF5D184F8F8
:1024E0004230256320680C3050E8002F22F01002A3
:1024F00040E80023002BF5D166632046FFF707FF75
:10250000F8BDFFE705062BD5150629D594F841003F
:102510002128F5D1A068B0F5805F01D12069B0B164
:10252000206A411C2162216800784860E08C401ECE
:102530000004000CE084E3D12068C16821F0800130
:10254000C1602068C16841F04001C160D8E7206ADD
:102550000088C0F308004860206A801C2062E5E71C
:102560004006CDD55006CBD5CA68204622F04002A1
:10257000CA6084F8413000F00AF9C1E7353000083C
:1025800070B5040004D094F84100002510B106E0B5
:10259000012070BD84F84050204600F023F824202C
:1025A00084F841002068C16821F40051C1602046D0
:1025B00000F0D0FD2068016921F49041016120689C
:1025C000416921F02A0141612068C16841F400514C
:1025D000C1606564202084F8410084F8420065638E
:1025E000002070BD70B586B0002400940194029460
:1025F00003942B4E03682B49022003222A4DB34239
:1026000021D18B6943F480438B618B6903F4804350
:1026100004938B6943F004038B618969039201F091
:10262000040104910102CDE9001069462846FEF735
:102630003DFE2815CDE90004694628460294FEF7C0
:1026400035FE06B070BD194EB342FAD1CB6943F4E2
:102650000033CB61CB6903F4003304938B6943F0FF
:1026600004038B618969039201F004010491042140
:10267000CDE9001069462846FEF718FE0820CDE98E
:102680000004694628460294FEF710FE0022052148
:102690002620FEF7A3FF2620FEF792FFD1E70000D9
:1026A0000038014000100240000801400044004092
:1026B00090F84230202B01D00220704721B11AB18E
:1026C0000023036300F0A2BD01207047074910B545
:1026D00088420AD10648007803F09AFDBDE8104010
:1026E000012203490148FFF7E3BF10BD3402002077
:1026F000040000202DE9F843044690F841001F46ED
:1027000016460D46202802D00220BDE8F8837DB190
:1027100076B100206064212084F84100FEF7C0FEFD
:10272000A6848046E684A068B0F5805F02D003E00E
:102730000120EAE7206910B12E4600250EE00026B0
:102740000CE08021204600F07CFDA0B9AEB116F867
:10275000010B21684860E08C401EE084E08C434619
:102760004FF0000200970028EBD14FF040012046C7
:1027700000F067FD30B10320C7E735F8020BC0F366
:102780000800E6E7202084F841000020BDE77047FC
:1027900001221146014801F0F9BC0000000C014083
:1027A000FEE7704770B5244C244D0126207878B997
:1027B0001021284601F0E8FC38B90A2003F078FF20
:1027C0001021284601F0E0FCD8B12078002831D053
:1027D0001021284601F0D8FC4FF47A75012815D055
:1027E000FEF75EFE6168401AA84223D9607800288F
:1027F00020D113A000F0BAFD6670BDE8704001F072
:1028000095BFFEF74DFE60602670E1E7FEF748FEDB
:1028100061680026401AA84206D90EA000F0A6FD65
:10282000667001F06BFC04E00FA000F09FFD01F06A
:102830007BFC267070BD00003800002000080140BD
:10284000636C69636B5F6C6F6E675F696E670D0ABF
:1028500000000000636C69636B206C6F6E6720661C
:10286000726565210D0A0000636C69636B20736CEF
:102870006F772066726565210D0A0000FEB50025A0
:1028800017480095019515490295016089158160E9
:10289000057301240475022606614FF4602145602A
:1028A000C0E90641FEF78AFA08B1FEF796F907205B
:1028B0000095CDE9014069460948FEF7FDF908B1E8
:1028C000FEF78BF9CDE9004669460548FEF7F4F9B5
:1028D000002801D0FEF781F9FEBD00000024014070
:1028E0001C01002010B5044A0021044802F08AF9B6
:1028F0000349086010BD00006C760008F12D000847
:10290000000000202DE9F04385B0002435480094F4
:10291000019402940394816941F0200181618169ED
:1029200001F020010491816941F004018161816914
:1029300001F004010491816941F00801816180691D
:10294000DFF8A48000F00800049000224FF6C17167
:102950004046FEF7A0FD012202214046FEF79BFD06
:10296000DFF888904FF40067002239464846FEF7AA
:1029700092FD102001258DE8310069464846FEF79A
:1029800095FC0320CDE900050226CDE902566946F3
:102990004046FEF78BFC4FF6C070CDE90005CDE94F
:1029A000024669464046FEF781FC28020090104826
:1029B000CDE9010469464846FEF778FC0097039686
:1029C000CDE9015469464846FEF770FC0022052116
:1029D0001720FEF703FE1720FEF7F2FD05B0BDE855
:1029E000F083000000100240000C0140000801408C
:1029F00000001110114810B50F4901604FF48271A9
:102A000041604FF4004181600021C1604FF40072C9
:102A10000161C0E905120822C0E907214162816213
:102A20000A21C162FFF760F9002803D0BDE8104019
:102A3000FEF7D3B810BD0000003001404C0100206B
:102A400010B586B0002417480094019402940394B2
:102A500004941349059401604721C0E901144FF61D
:102A6000FF71C0E9031444618461FFF7B3FA08B150
:102A7000FEF7B3F84FF48050009069460948FFF71D
:102A800017FB08B1FEF7A9F8049404A905480594BA
:102A9000FFF76CFA002801D0FEF79FF806B010BDD2
:102AA000002C0140A40100200C4810B50A49016027
:102AB0004FF4E1314160002181600C22C160C0E926
:102AC00004128161C161FFF75BFD002803D0BDE8FE
:102AD0001040FEF782B810BD00380140EC01002024
:102AE0000C4810B50A4901604FF4E1314160002102
:102AF00081600C22C160C0E904128161C161FFF7ED
:102B00003FFD002803D0BDE81040FEF766B810BDB9
:102B10000044004034020020FEE7FEE710B501F05B
:102B20007FFE03F031F901F051FCBDE810400022B6
:102B30004FF40061014801F029BB0000000801408A
:102B400010B501F0A9FF03F01FF901220221054889
:102B500001F01CFB0122BDE81040D102024801F047
:102B600015BB0000000C01400008014010B5FEF745
:102B700027F8012003F01EFF04490028086004D153
:102B8000BDE8104002A000F0F1BB10BD70000020B5
:102B9000E4BFA1E58FB7E9878FE5889BE5BBBAE580
:102BA000A4B1E8B4A55C6E0038B501F023FB11496F
:102BB000FDF7A9FBFDF7BDFD6424002341F2680287
:102BC00040F6E441009401F017FE054601F0B8FB21
:102BD000057001F0B5FB0078642802D901F0B0FB64
:102BE000047001F0ADFB0178BDE8384002A000F0B0
:102BF000BDBB00000000FA44626174746572792004
:102C00003D20256425250D0A0000000010B54FF475
:102C10008071074801F0B8FA00B1012003F0A2F872
:102C200001F08EFB8078012801D10249087010BDA7
:102C3000000801404000002010B501F0B7FA0B4930
:102C4000884206DBFDF78EFD044601F079FB4470F7
:102C500003E001F075FB0021417001F071FB417848
:102C6000BDE8104002A000F081BB000095BFD63344
:102C700074656D70657274757265203D2025640DF4
:102C80000A000000014610B52248052941D2DFE8BC
:102C900001F003050B1F2E00002200E00122BDE819
:102CA0001040012101F072BA00220121044601F016
:102CB0006DFAC82003F0FCFC01221146204601F009
:102CC00065FAC82003F0F4FC00220121204602E04E
:102CD00000220121044601F059FAC82003F0E8FC63
:102CE00001221146204601F051FAC8200DE00022D1
:102CF0000121044601F04AFA0A2003F0D9FC01221E
:102D00001146204601F042FA0A20BDE8104003F0C7
:102D1000CFBC10BD000C014038B50B4600920446F4
:102D20000022802100F008F8002804D0606D40F0F7
:102D300020006065032038BD2DE9F8431E4691460A
:102D400088460446089DFEF7ABFB401B351AFEF78C
:102D5000A7FB074625480068C0F3CB30684338E03E
:102D6000701C37D0FEF79CFBC01BA84203D215B1E4
:102D7000009860B32CE02068416821F0E0014160D8
:102D80006068B0F5827F0BD1A068B0F5004F02D02B
:102D9000B0F5806F04D12068016821F04001016026
:102DA000A06AB0F5005F09D12068016821F40051E4
:102DB00001602068016841F400510160012084F83D
:102DC0005100002084F850000320BDE8F88300255E
:102DD000401E00902068816838EA010004D000217C
:102DE0004945BDD10020F0E70121F9E79800002016
:102DF000012001F0B1FEFBE710B5502080F31188EF
:102E0000BFF34F8FBFF36F8F04F022FA18B104495C
:102E10004FF080500860002080F3118810BD000042
:102E200004ED00E030B593B028216846FDF7EFF9D6
:102E300014210AA8FDF7EBF9002501200F95109544
:102E40001195010412958DE8230004904FF4E010D1
:102E5000CDE90810022407946846FEF7B5FD08B1D5
:102E600072B6FEE70AA90F2081E831004FF48060B6
:102E7000CDE90D0502210AA8FEF7AAFC08B172B639
:102E8000FEE74FF4004011900F940FA8FEF72AFCC4
:102E9000002801D072B6FEE713B030BD70470000C5
:102EA0000148FFF774B900007C020020F0B5026809
:102EB000164B174C174D4FF08047984205D0B8423B
:102EC00003D0A04201D0A84203D122F070064A6884
:102ED0003243984205D0B84203D0A04201D0A84264
:102EE00003D122F44074CA6822434C6922F0800264
:102EF000224302608A68C2620A688262984201D1F3
:102F00000969016301214161F0BD0000002C01400D
:102F1000000400400008004010B5846842EA032223
:102F200024F47F440A432243826010BD826822F069
:102F300070020A4342F007018160704710B5036ACE
:102F4000046A24F001040462846924F0F00444EA71
:102F5000021423F00A020A438461026210BD10B514
:102F6000036A046A24F010040462846923F0A00355
:102F700024F4704444EA023243EA0111826101629E
:102F800010BD00001CB511491148CDE90001002316
:102F9000012242F210710FA004F0ECFA104C6060B4
:102FA00080B104F04FF90246002003460090012151
:102FB000606804F027FB012806D00AA0BDE81C4089
:102FC00000F0D4B911A0F9E71CBD0000DC360020E8
:102FD00019570008537461746554696D6572000077
:102FE000780000204572726F723A20E78AB6E68058
:102FF00081E5AE9AE697B6E599A8E590AFE58AA88F
:10300000E5A4B1E8B4A5EFBC815C6E004572726FB7
:10301000723A20E78AB6E68081E5AE9AE697B6E591
:1030200099A8E5889BE5BBBAE5A4B1E8B4A5EFBCD7
:10303000815C6E0010B5406A0021C185C184FFF734
:1030400067F910BD01680C3151E8002F22F490722D
:1030500041E80023002BF5D10168143151E8002F1D
:1030600022F0010241E80023002BF5D1016B012978
:1030700009D101680C3151E8002F22F0100241E81B
:103080000023002BF5D1202180F84210002101639C
:10309000704708B590F84210222901D0022008BDDF
:1030A00082684FF480539A4201D1016921B1816A4B
:1030B0009A421BD04AB10AE00268816A5268C2F3A0
:1030C00008020A80816A891C08E0026972B10268FC
:1030D000526802F07F020A70816A491C8162C18DC8
:1030E000491E0904090CC18503D01BE0026852681F
:1030F000F1E70168CA6822F02002CA600168CA6864
:1031000022F48072CA6001684A6922F001024A61B1
:10311000202180F8421000214163026B012A03D074
:10312000FFF7D4FA002008BD016301680C3151E8B3
:10313000002F22F0100241E80023002BF5D1016896
:103140000A68D20602D50A6849680091818DFFF7A6
:10315000DEF8E7E770B5044600680169E26821F42B
:103160004051114301612169A06808436169084326
:103170002168CA6841F20C639A430243CA6020681E
:103180004169A26921F44071114341611E492068DF
:10319000884202D1FEF7E2FB01E0FEF7CFFB00EB35
:1031A000C00101EB0012606864218000B2FBF0F303
:1031B000B3FBF1F36FF018067343B2FBF0F5B2FB0B
:1031C000F0F605EB8305322303EB0515B5FBF1F5AE
:1031D000B6FBF1F605F0F00505EB0615B2FBF0F6CF
:1031E000B2FBF0F0B0FBF1F06FF01802504306EBC9
:1031F000800003EB0010B0FBF1F0216800F00F003D
:103200002844886070BD00000038014081628285DA
:10321000C28500214164222180F84210016921B158
:103220000168CA6842F48072CA6001684A6942F063
:1032300001024A610068C16841F02001C1600020BC
:1032400070472DE9F041984617460E460446069D04
:1032500027E0681C25D02DB1FEF722F9A0EB08006D
:10326000A8421ED920680C3050E8001F21F4D0710C
:1032700040E80012002AF5D12068143050E8001F01
:1032800021F0010140E80012002AF5D1202084F845
:10329000410084F84200002084F840000320BDE88B
:1032A000F0812068006836EA000004D00020B842AF
:1032B000CFD00020F3E70120F9E700000148FFF735
:1032C00029B8000034020020FEE700002DE9F0419B
:1032D0000D0080463FD0214C4FF48977D4F89803F5
:1032E000B84238D8302D00D930251D4A0021161F8C
:1032F000306803F0FDFD012823D1D4F89403194967
:1033000000EB400001EB00102A46414604F56574CD
:10331000FCF764FF2068401C20606168491C616004
:10332000A4F56574B84202D90020C4F89403B942E8
:1033300003D940F21310C4F898030949306803F028
:10334000EDFC7068012806D1074900070860BFF34B
:103350004F8FBFF36F8FBDE8F08100004033002036
:10336000740000204003002004ED00E00FB4054B82
:1033700010B503A9044A029800F056F910BC5DF894
:1033800014FB000095410008140100200907090EF4
:10339000002804DB00F1E02080F80014704700F002
:1033A0000F0000F1E02080F8141D70472DE9F04176
:1033B0004F1E00EBC7010446D1E9000115461E4629
:1033C00037F006020DD02A463346FDF7BFF87F1EC0
:1033D00004EBC703D3E90023FDF711F837F0060229
:1033E000F1D1022F25D0042F13D0062F18BFBDE82E
:1033F000F0812A463346FDF7A9F8D4E90A23FCF701
:10340000FEFF2A463346FDF7A1F8D4E90823FCF76E
:10341000F6FF2A463346FDF799F8D4E90623FCF770
:10342000EEFF2A463346FDF791F8D4E90423FCF772
:10343000E6FF2A463346FDF789F8D4E90223FCF774
:10344000DEFF2A463346FDF781F8D4E90023BDE8C4
:10345000F041FCF7D4BF000000221346104601499A
:10346000FDF7E6B80000F03F0122FDF7D3BA0022D5
:10347000134610461146FDF7DBB802E008C8121FDC
:1034800008C1002AFAD170477047002001E001C14D
:10349000121F002AFBD170470149086070470000E5
:1034A000180100202DE9FF5F82B00021DDE9043022
:1034B000020DDDF840B0034318D044F61050A2F2DC
:1034C000FF3242431514119801281FD0A5EB0B00C1
:1034D000401C5FEA000A4FF000064E4FDFF83891BB
:1034E000B046504615D5CAF1000413E011980124E6
:1034F0004AA3012801D16FEA0B010298119AC0E991
:103500000031C0E9024206B0BDE8F09FCBF10000F7
:10351000DFE704460021404A491842EB0450CDE958
:10352000001012E0E00707D032463B4640464946CD
:10353000FDF70CF88046894632463B461046194650
:10354000FDF704F806460F466410002CEAD1DDE9C9
:103550000401DDE90023BAF1000F06DAFCF7F6FFFB
:1035600042464B46FCF7F2FF05E0FDF761F84246A4
:103570004B46FDF75DF804460E460022284BFDF74A
:1035800089FA03D84FF0FF30014607E00022254BAF
:1035900020463146FCF733FFFDF764FA102409E0BA
:1035A000002C0ADB0A220023FDF74EF9039B303280
:1035B0001A55641E50EA0102F2D1641C039AC4F148
:1035C00011031444119A012A03D0012208430DD19A
:1035D0000AE0084304D000204FF0110B119072E76D
:1035E000A3EB0B056D1E0DE05B4504DD4FF0000203
:1035F00005F1010504E003DA4FF00002A5F1010531
:10360000002AECD002981199C0E90231C0E90045C6
:1036100079E70000000014400000F03F3000000097
:103620000000F0430000E03F2DE9FF4F95B09B46BE
:103630008946064600250FE2252877D10024274633
:10364000F84A0121059400E0044316F8013F203BAD
:1036500001FA03F01042F7D130782A2811D06FF028
:103660002F033078A0F13002092A16D8059A44F0C9
:10367000020402EB820203EB42021044761C059026
:10368000EFE759F8042B0592002A03DA504244F47C
:103690000054059044F00204761C30782E2816D190
:1036A00016F8010F44F004042A280DD06FF02F0201
:1036B0003078A0F13003092B09D807EB870302EB20
:1036C0004303C718761CF3E759F8047B761C30785F
:1036D0006C280FD006DC4C2817D068280DD06A283B
:1036E00014D104E0742810D07A280FD10DE044F4EE
:1036F00000140AE044F4801401E044F440147278A9
:10370000824202D104F58014761C761C307866283B
:103710000BD013DC582877D009DC002875D0452859
:10372000F6D04628F4D047281AD19DE118E0632846
:1037300035D0642879D0652812D195E1702873D0EE
:1037400008DC6728F1D069286FD06E280DD06F286B
:1037500006D1B5E073282CD0752875D0782874D0A0
:103760005A46179990476D1C75E1C4F30250022820
:1037700009D003280DD0D9F8001004280DD00D6011
:1037800009F1040967E1D9F80010EA17C1E900520C
:10379000F6E7D9F800100D80F2E70D70F0E719F8A0
:1037A000041B8DF8001000208DF80100EA4601206E
:1037B00003E059F804AB4FF0FF3061074FF0000110
:1037C00002D40DE008F101018846B9420FDA8045C4
:1037D000F8DB1AF808100029F4D108E008F101011B
:1037E00088468142FADB1AF808100029F6D10598BC
:1037F0005B46A0EB080721463846179A00F094FA7A
:10380000284400EB080507E04DE029E10DE01AF837
:10381000010B5A4617999047B8F10108F7D25B4659
:1038200021463846179A13E142E00A220092C4F377
:1038300002524FF0000A022A08D059F804CB032A9A
:103840004FEAEC710AD00DE029E02AE009F1070106
:1038500021F00702F2E802C1914609E00FFA8CFC60
:103860004FEAEC71042A03D14FFA8CFC4FEAEC7159
:10387000002907DA0A460021DCF1000C61EB0201A5
:103880002D2202E0220504D52B228DF804200122EE
:1038900003E0E20701D02022F7E7904659E00A2131
:1038A00002E010220DE010214FF0000A00910BE021
:1038B00010224FF0000A44F004040827009203E0AD
:1038C00008224FF0000A0092C4F30252022A05D0E7
:1038D00059F804CB0021032A08D009E009F10701B7
:1038E00021F00702F2E802C1914605E01FFA8CFCC4
:1038F000042A01D10CF0FF0C4FF00008220728D554
:10390000702806D0009B83F0100353EA0A0305D009
:103910000EE040228DF80420012208E05CEA01025A
:1039200006D030228DF804208DF805000222904642
:10393000009B83F0080353EA0A030AD15CEA010200
:1039400001D1620705D530228DF804204FF001081F
:103950007F1E582804D034A003900EA802900DE0DA
:1039600036A0F9E753466046009AFCF76DFF84469F
:103970000398825C0298401E029002705CEA01008B
:10398000F0D1029806A9081A00F1200A600702D5B2
:1039900024F4803400E00127574502DDA7EB0A003C
:1039A00000E0002000EB0A01009005984144401A15
:1039B0000590E00306D45B462146179A059800F06F
:1039C000B3F90544002706E001A85A46C05D1799DF
:1039D00090476D1C7F1C4745F6DBE0030CD55B462A
:1039E0002146179A059800F09FF9054404E030201D
:1039F0005A46179990476D1C0099481E009000295F
:103A0000F5DC08E0029802995A460078491C0291B8
:103A1000179990476D1CBAF10001AAF1010AF1DC77
:103A200065E1000009280100303132333435363782
:103A300038396162636465660000000030313233FA
:103A4000343536373839414243444546000000009A
:103A500000F058F90544761C307800287FF4ECAD6E
:103A600019B02846BDE8F08F620700D4062709F197
:103A7000070222F0070CFCE80223E14603F00048AD
:103A80005FEA080C02D00FF2702C0DE05FEA045CD4
:103A900002D50FF2682C07E05FEAC47C02D00FF277
:103AA000602C01E0AFF2700C4FF0FF3823F00043C0
:103AB000CDF850C065280CD006DC452809D0462832
:103AC0001DD047283DD13DE0662818D067287ED11B
:103AD00038E00021112F01DB112000E0781CCDE936
:103AE000000106A90EA8FFF7DDFCDDE90F010E9A23
:103AF00003910021009207F1010A04914DE04FF07B
:103B000000400097CDE9011006A90EA8FFF7CAFCF6
:103B1000DDE90F0203920E9B11990022DDF80CA043
:103B20000093049211B9791C00EB010AB7EB0A006B
:103B300004D4C0F1FF3007F1010A0490AAEB07009A
:103B4000019044E0012F00DA01270021112F01DD4F
:103B5000112000E03846CDE9000106A90EA8FFF7C4
:103B6000A1FCDDE90F010E9A03910021049100925E
:103B7000BA4621070CD40399514500DA8A46BAF1B6
:103B8000010F05DD009AAAF10101515C302908D02E
:103B9000B84202DA10F1040F06DA0121CDE9011072
:103BA00015E0AAF10101E9E7002805DC04990144C8
:103BB0000491AAEB000102E0411C514500DD8A4658
:103BC0000499401A401C01904FF0004002902007D9
:103BD00004D40198504501DBCDF8048000208DF815
:103BE0004F0002980DF14F07B0F1004F25D02B2068
:103BF0000E9002984FF0020800280CDA4042029022
:103C00002D200E9007E00A210298FCF707FE3031C4
:103C1000029007F8011DB8F10001A8F10108F2DCDB
:103C200002980028EFD1791E0E980870307800F0C5
:103C3000200040F0450007F8020D12A8C01B00F15B
:103C400007081498007800B1012000EB0A010198E0
:103C500001EBE07105984144401A401E0590E003D5
:103C600006D45B462146179A059800F05DF8054496
:103C70001498007818B15A46179990476D1CE003C4
:103C800024D55B462146179A059800F04DF8054467
:103C90001CE00498002807DBDDE90301884203DD0E
:103CA0000098405C179901E0179930205A469047D8
:103CB000049805F10105401C04900198401E0190F4
:103CC00004D12E205A46179990476D1CBAF1000175
:103CD000AAF1010ADDDC05E017F8010B5A46179935
:103CE00090476D1CB8F10001A8F10108F4DC5B46B7
:103CF0002146179A0598ABE62D0000002B00000026
:103D0000200000002DE9F041044600251E4617461C
:103D1000880404D405E039462020B0476D1C641E99
:103D2000F9D52846BDE8F0812DE9F041044600258B
:103D30001E469046C80301D5302700E0202788049E
:103D400004D505E041463846B0476D1C641EF9D5E0
:103D50002846BDE8F081000010B50648FDF786F959
:103D60000448FCF73DFFBDE810404FF47A7101486C
:103D7000FDF7DEB81C01002070B5036800252E4653
:103D80001A460AE050F8254026449C4200D92346B2
:103D9000944200D222466D1CEDB28D42F2D39818A7
:103DA000301A891EB0FBF1F070BD000070B5534CA5
:103DB00001254FF6FF76606A401C6062322002F0F7
:103DC00077FC6078E0B101281AD0022826D00328B9
:103DD00024D0042830D005282ED006283AD0072831
:103DE00038D0082844D00A2842D00B2850D00928BF
:103DF0004ED00C284CD00D286DD00E2857D062E044
:103E00003FA0FFF7B3FAA068FCF71EFA82B2334670
:103E10004148A168FEF76EFC657054E03FA0FFF7D3
:103E2000A5FAE068FCF710FA82B233463A48E16836
:103E3000FEF760FC032038E044A0FFF797FA206902
:103E4000FCF702FA82B2334633482169FEF752FC8E
:103E500005202AE045A0FFF789FA6069FCF7F4F92C
:103E600082B233462C486169FEF744FC07201CE00F
:103E700046A0FFF77BFAA069FCF7E6F982B2334669
:103E80002548A169FEF736FC0A206070A5701AE08B
:103E900046A0FFF76BFAE069FCF7D6F982B2334629
:103EA0001D48E169FEF726FC0C2060700BE045A080
:103EB000FFF75CFAE069FCF7C7F982B233461648AF
:103EC000E169FEF717FC617846A0FFF74FFA04207E
:103ED000FEF7D8FE6FE7A07808B148A000E051A037
:103EE000FFF744FA4FF47A7002F0E2FB0020206200
:103EF000BDE8704064215448FCF789B910000020E7
:103F0000424C453AE6ADA3E8BF9BE585A54154E6A2
:103F1000A8A1E5BC8F0D0A0034020020424C453AAE
:103F2000E6ADA3E8AEBEE7BDAE737461747573E42D
:103F3000B8BA3020E585B3E997ADE78AB6E6808167
:103F4000E698BEE7A4BA5C720A000000424C453A0B
:103F5000E6ADA3E69FA5E8AFA2E78AB6E68081E6D4
:103F600098AFE590A6E4B8BA300D0A00424C453A45
:103F7000E6ADA3E69FA5E8AFA2E8AEBEE5A487E55F
:103F8000908DE7A7B05C720A00000000424C453AF1
:103F9000E6ADA3E8AEBEE7BDAEE8AEBEE5A487E5FC
:103FA000908DE7A7B05C720A00000000424C453AD1
:103FB000E6ADA3E98080E587BA4154E6A8A1E5BC57
:103FC0008F0D0A00424C453A424C4520524553451C
:103FD0005420E98080E587BA4154E6A8A1E5BC8F6A
:103FE0000D0A0000675F626C655F696E69745F73DC
:103FF000746570203D2025640D0A0000E9858DE779
:10400000BDAEE5AE8CE688902DE8AFB7E9878DE5CB
:1040100090AFE8AEBEE5A487E4BDBFE794A85C72AC
:104020000A000000E9858DE7BDAEE5AE8CE688901C
:104030002DE58FAFE4BBA5E6ADA3E5B8B8E4BDBF01
:10404000E794A80D0A000000C40200200D4808B53E
:104050000078002814D000F073F901788DF8001072
:1040600041788DF8011081788DF80210C0788DF8B4
:1040700003004FF6FF73042269460348FEF73AFB3C
:1040800008BD0000100000203402002070B5094C6B
:10409000E07800280DD0C82002F00AFB064907A0EE
:1040A000FFF764F90025642103482562FCF7AFF8A7
:1040B000E57070BD10000020C4020020636C6561D3
:1040C0006E202D2D2D3E25730D0A00000149002084
:1040D00048607047100000200149002008707047B8
:1040E000780000200448002141610161C1608160C5
:1040F00041600160704700002803002010B505A052
:10410000FFF734F9074900204870BDE8104000F07F
:1041100055BC0000E5819CE6ADA2E8B5B0E7BAB8B1
:104120000D0A00006D00002010B503A0FFF71EF976
:1041300005490120087010BD427574746F6E20E54A
:104140008D95E587BB0D0A006D000020064808B577
:104150008068002806D000210B460A460091032102
:1041600003F050FA08BD0000780000200548002147
:1041700064220160017102708170C1701E21417062
:104180007047000084000020FDF780B9D2B2FDF72F
:1041900082B9000013B54FF6FF7301226946024849
:1041A000FEF7A8FA00981CBDEC01002070B50E487F
:1041B0004068FCF7ACFA0D4D2946FCF7A4F86FF007
:1041C0000B01FCF710F9044601462846FCF795F868
:1041D000054607492046FCF796F82946FCF7C5F83E
:1041E000BDE8704000F0C2B80800002033335340EF
:1041F00000401C4670B594B000246D460AAE3048AD
:10420000FCF734FF64212E48FCF792FE20B92C48BD
:10421000FCF7D0FD45F824002948FCF727FF64216E
:104220002748FCF785FE20B92548FCF7C3FD46F872
:1042300024006420FDF704F82148FCF777FF641C94
:10424000E4B20A2CDBD30A216846FFF795FD1D4C2A
:104250000A2120600AA8FFF78FFD60602068FCF744
:1042600056FA194D2946FCF74EF86FF00B06314609
:10427000FCF7B9F8FCF78AFA02460B4613A0FFF7E1
:1042800075F86068FCF743FA2946FCF73CF83146BC
:10429000FCF7A9F8FCF77AFA02460B4615A0FFF7DF
:1042A00065F80748FCF742FF2068FCF730FA29461A
:1042B000FCF729F814B03146BDE87040FCF793B81C
:1042C0001C010020080000203333534020414443A8
:1042D000206368616E6E656C3020656E6420766167
:1042E0006C7565203D202D3E25312E336656200D00
:1042F0000A00000020414443206368616E6E656CD3
:104300003120656E642076616C7565203D202D3E00
:1043100025312E336656200D0A0000000148007832
:1043200070470000100000200148D0F89803704743
:104330004033002001484068704700001000002012
:104340000048704784000020014800787047000052
:104350006D00002001484078704700007800002080
:1043600001480078704700007800002010B511491E
:10437000FBF7FBFFFCF70AFA00F02AF800220E4BCD
:10438000FCF756F94FF060420C4BFCF738F8024648
:104390000B4600200A49FCF74BF94FF0C042094B8D
:1043A000FCF7CEF80022084BFCF729F8BDE81040D6
:1043B000FCF718BA0060EA4600DCAE40E1796B3FDA
:1043C0000000F03F661271400000E03F70470000BF
:1043D0002DE9F04DC84A002490B0914205DA21F051
:1043E0000043934201D805D120B110B0BDE8F04D93
:1043F000FFF73AB8B1F5801F1BDA53EA000209D083
:10440000002911DA0120FFF747F810B0BDE8F04DA0
:10441000FFF72DB80220FFF73FF8FFF71DF810B0A7
:1044200081F00041BDE8F08D6FF035043622FCF7D5
:10443000F1FA04EB2152C1F31308B049A2F2FF33A1
:10444000414401F4801282F07F6103EB225281F03B
:104450004051009241EA08010022A94BFCF770F894
:10446000044608F10200A74EC0F313000D467E4437
:10447000032867D2D6E900232046FCF79BF91ED11A
:104480000098002802BFD6E9000110B0BDE8F08D09
:10449000FCF7D7FA07460C469B4A9C4BFCF756F8AC
:1044A00006460D469A4A9B4B38462146FCF74EF885
:1044B00010B032462B46BDE8F04DFBF7A0BF4FF0E1
:1044C0005532954B20462946FCF740F80022934B85
:1044D000FCF739F806460F4622462B461046194689
:1044E000FCF734F832463B46FCF730F806460098B5
:1044F0000F46F0B1FCF7A5FA80468A46824A834B04
:10450000FCF724F832463B46FCF71DF822462B46C2
:10451000FCF716F805460C467D4A7E4B4046514650
:10452000FCF714F810B02A462346BDE8F04DFCF71E
:1045300007B80B4610B0324620462946BDE8F04D7C
:10454000FBF7FEBF00224FF080432046FBF757FFEA
:1045500002460B4620462946FCF76AF806460F46F7
:104560000098FCF76EFACDE9040132463B4610464E
:104570003946FBF7EBFF0C9069480C9A40440190D8
:1045800009910B461046FBF7E1FF8246024665485B
:104590008B46C8F151080B4608F5D728032178440B
:1045A000FEF704FF52465B46FBF7D0FF0A905E48D9
:1045B0000D9152465B4604217844FEF7F7FE099BB5
:1045C0000C9AFBF7C3FF844601980D9B40EA08084C
:1045D00060460A9AFBF713FF83460891B8F1000F73
:1045E0004EDD4FF0FF3220462946FCF713FA2246F3
:1045F0002B46FBF7ABFF804600988A4660B3DDE9A7
:104600000401414A414BFBF7A1FF099100905A4632
:1046100040465146089BFBF7F2FE32463B46FBF70D
:1046200095FF099B009AFBF7EAFE42465346FBF7CB
:104630008AFF22462B46FBF783FF04460D46DDE941
:104640000401334A334BFBF781FF10B022462B465F
:10465000BDE8F04DFBF774BF5A464046089BFBF798
:10466000CEFE32463B46FBF771FF42465346FBF710
:104670006AFF10B022462B46BDE8F04DFBF763BF42
:10468000009840B3DDE904011F4A204BFBF75EFFB1
:1046900080468A465A4620462946089BFBF750FF2B
:1046A00032463B46FBF752FF42465346FBF748FF74
:1046B00022462B46FBF744FF04460D46DDE9040184
:1046C000134A144BFBF742FF10B022462B46BDE8BD
:1046D000F04DFBF735BF0B465A4620462946FBF7FF
:1046E0002FFF32463B46FBF731FF10B022462B46E8
:1046F000BDE8F04DFBF727BF0000F07F645F0900C5
:104700000000F03F96320000763C7935EF39EA3D03
:104710000000E0FE422EE63F5555D53F0000E03F49
:1047200086EBF9FF2E3100002C3100000F4810B548
:104730004178002918D1012141700DA0FEF716FE25
:10474000FFF7FEFD817819B9C078032805D020B1A4
:10475000BDE810400220FEF795BA0AA0FEF706FE5B
:10476000BDE8104000F008B910BD00006D00002049
:10477000427574746F6E20E995BFE68C89210D0A2D
:1047800000000000E5BC80E5A78BE8B5B0E7BAB84B
:104790005C720A00FCF792FEFEF744FBFEF7B2F8EB
:1047A000FEF76CF8FEF726F9FEF74AF9FEF77CF9FA
:1047B000FEF796F908A0FEF7D9FD01220C490D4835
:1047C000FDF776FF01F0C4FB00F0E0F9FEF78AF890
:1047D00000F0F8F9FEE700002D2D2D2D61707020FE
:1047E000696E6974206C7A2D2D2D2D0A0000000051
:1047F000040000203402002010B5A0EB0100029C50
:10480000E41A521A08D0604302EBD27100EB610047
:1048100090FBF2F0184410BD4FF0FF3010BD0000C7
:1048200010B50C4C00224FF400712046FFF7AEFC8F
:104830000022A1152046FFF7A9FC00228021204676
:10484000FFF7A4FC20460022BDE810404021FFF7FE
:104850009DBC0000000C014070B5164D164EA5F130
:1048600008044FF40071207815F820203046FFF737
:104870008DFC2078B11505EB800042783046FFF7BB
:1048800085FC2078802105EB800082783046FFF798
:104890007DFC2078402105EB8000C2783046FFF790
:1048A00075FC2078401CC0B22070082801D300207D
:1048B000207070BD4C000020000C01402DE9F04735
:1048C00005462A4C4FF00008DFF8A49049E0274E37
:1048D00020780836274F16F820204FF4007138460C
:1048E000FFF754FC2078B91506EB80004278384673
:1048F000FFF74CFC2078802106EB80008278384658
:10490000FFF744FC2078402106EB8000C27838464F
:10491000FFF73CFC2078401CC0B22070082801D36F
:1049200084F80080D9F80020C2F82480D9F800105B
:104930000A6842F001020A60D9F800004FF47A6276
:10494000416A9142FCD3016A41F21112114207D12E
:10495000016A9210114203D1016821F00101016046
:104960006D1E002DB3D1BDE8F0870000440000208B
:10497000A4010020000C014038B50B4C606840B920
:104980000A48009000230122022109A002F0D8FD6C
:10499000606002F057FC0246642000900023012171
:1049A000606802F02FFE38BD44000020B5560008B4
:1049B0004D6F746F7254696D6572000038B5114C9B
:1049C00000224FF400712046FFF7E0FB0022A11502
:1049D0002046FFF7DBFB002280212046FFF7D6FBB5
:1049E000002240212046FFF7D1FB074840680028FD
:1049F00007D04FF6FF71002300911A46032102F001
:104A000001FE38BD000C01404400002010B50C46EA
:104A1000A8B11BA0FEF7AAFCFFF7D0FFFFF796FB9B
:104A200000224FF400611A48FFF7B0FB01F0ACF927
:104A3000012202211748FFF7A9FB012010BDFFF753
:104A40000BFFFF2C07D0204600F0DEFE0320FFF70F
:104A500035FF002010BD0024204600F0D5FE0AE0FE
:104A6000204600F0D1FE012C03D0032C01D0052CF0
:104A700001D1FFF7F1FE641CE4B2062CF0D3E8E7A5
:104A8000E5819CE6ADA2E68993E58DB00D0A0000B4
:104A900000080140000C01407CB5154C0025A068C1
:104AA00028B100231A460521009502F0ABFD1149FB
:104AB0001148CDE9000100231A4644F620610FA0F9
:104AC00002F058FDA06078B102F0BCFB02460095F0
:104AD00000230121A06802F095FD012806D00AA05C
:104AE000BDE87C40FEF742BC12A0F9E77CBD0000A7
:104AF000780000200C370020D95500085072696EEC
:104B00007454696D657200004572726F723A20E6E6
:104B10008993E58DB0E69CBAE5AE9AE697B6E5993D
:104B2000A8E590AFE58AA8E5A4B1E8B4A5EFBC81FB
:104B30005C6E0000E68993E58DB0E69CBAE5AE9A1E
:104B4000E697B6E599A8E5889BE5BBBAE5A4B1E888
:104B5000B4A5EFBC815C6E0010B5EFF3058149B9D7
:104B6000EFF3108131B908490968022905D1EFF343
:104B7000118111B16FF0050403E0002408B101F0C8
:104B800097FD204610BD0000EC000020EFF30580EB
:104B900058B9EFF3108040B909490868022801D0DC
:104BA00030B109E0EFF3118030B16FF005007047CC
:104BB00001200860002070474FF0FF307047000070
:104BC000EC00002010B5EFF3058060B9EFF3108022
:104BD00048B90B490868022802D0012806D00BE02A
:104BE000EFF3118040B16FF0050010BD02200860A6
:104BF00001F00EFE002010BD4FF0FF3010BD000090
:104C0000EC000020F0B585B04FEA01034FF000043E
:104C1000EFF305810394A1BBEFF3108189BB214918
:104C20000968022902D1EFF3118151BB48B38026F4
:104C300018218DF8104004AD42B3176807B13D4606
:104C400097691FB139467F1E382F02D21779FF07A7
:104C500002D0002005B0F0BD576907B1BE08D2F8F8
:104C600008C0BCF1000F0DD0D4685C2C18D31269B9
:104C70003AB137B18DE806103246294602F0A9FA5A
:104C800003900DE0D7685FB912694AB903AACDE96C
:104C90000012B2B2294602F06FFA012800D0039444
:104CA0000398D7E7EC00002010B50446FFF752FB4D
:104CB00018B112A0FEF75AFB15E0FFF741FB807810
:104CC000012812D0FFF73CFB4078412814D91CB1D1
:104CD000FBF776FFFFF7BAF90CA000BFFEF746FB23
:104CE0000220FDF7CFFF012010BD1CB1FBF768FFCC
:104CF000FFF7ACF909A0F1E7002010BDE68993E5C4
:104D00008DB0E8B685E697B60D0A0000E6B8A9E5CD
:104D1000BAA6E5BC82E5B8B80D0A0000E7BCBAE760
:104D2000BAB80D0A000000002DE9F041134C0F46FF
:104D3000054666692068001D01F08AFB681C07D1E2
:104D400037B12168BDE8F0410D48091D01F0D0BB25
:104D500020683544B5424560216805D2A068BDE8A9
:104D6000F041091D01F0ACBB6068091D01F0A8FB12
:104D7000206B854200D22563BDE8F0819C000020B5
:104D8000583800202DE9F041054601F0BDFB2E4CBE
:104D90002069401C206120682C4F10B1E06940B3AD
:104DA0002DE025602069012829D1002606EB860028
:104DB00007EB800001F076FB761C072EF6D3234824
:104DC0008C3001F06FFB2148A03001F06BFB1F48D5
:104DD000B43001F067FB1D48C83001F063FB1B488D
:104DE000DC3001F05FFB19488C3060601430A0604B
:104DF00005E02068E96AC06A884200D82560E06A58
:104E0000401CE0626864E86AA169884200D9A06138
:104E100000EB800007EB8000291D01F069FB01F029
:104E200093FBE06900280CD02068E96AC06A8842D8
:104E300007D207494FF080500860BFF34F8FBFF390
:104E40006F8FBDE8F08100009C0000207C370020BF
:104E500004ED00E038B501F057FB104CA068C8B96C
:104E60000F4801F01FFB0E48143001F01BFB0C48EB
:104E70002060143060600A4B00202833009003F15A
:104E8000500210210A2001F0C4FDA06010B105A15C
:104E900001F0D8FBBDE8384001F056BBD800002037
:104EA0006C380020546D72510000000030B4026C68
:104EB0000B46002A0BD0C1681144C1604468A1426E
:104EC00001D30168C16030BC1846FBF787B930BC1C
:104ED00070472DE9F041856B174604460026026CA9
:104EE00082B1C7B1E068FBF779F9E168206C091A73
:104EF000E1602268914202D26168081AE060022FE4
:104F000016D017E02068A8B9606802F005FA0646D6
:104F1000002060600EE0A068FBF760F9216CA068DB
:104F20000844A0606168884204D32068A06001E062
:104F300005B16D1E6D1CA5633046BDE8F08110B54E
:104F4000044690F8590058B101280CD002280FD01F
:104F5000502080F31188BFF34F8FBFF36F8FFEE7B0
:104F6000206B01F005FB2046BDE8104001F000BBBE
:104F700010BD00000F4840F63831420705D0C01D73
:104F80000C4A20F00700821A891A0B4A00230144B8
:104F9000C2E900030839103A21F0070111604B60A3
:104FA0000B600B1AC0E9001393604FF00040536090
:104FB000D06070473C40002000010020144E154C8A
:104FC000A6F1C8074FF08058DFF84C9012E000BF00
:104FD00001F09AFAF068C568281D01F039FA2069D5
:104FE000401E2061E068401EE06001F0ADFA2846F6
:104FF000FFF7A5FFE0680028EAD138680128F9D951
:10500000C9F80080BFF34F8FBFF36F8FF2E7000046
:10501000443800209C00002004ED00E0002807D068
:105020000021416001600B460A46C16001F068BD85
:105030007047000070B51D46049C51B1C4F80020B3
:10504000C4E90F010121204601F016FD84F84C50FF
:1050500070BD2460F4E72DE9F0470E46DDE90984D0
:105060001746824691009946089DA522206BFBF7C2
:10507000C7F86FF00301206B01EB8701084420F0B3
:105080000707780707D0502080F31188BFF34F8FB0
:10509000BFF36F8FFEE72218315C82F83410315C69
:1050A00011B1401C1028F6D3002684F84360072D68
:1050B00000D30625E562C4E91356201D01F0FDF971
:1050C00004F1180001F0F9F92461C5F107006462E8
:1050D000A061666584F858604A465146384600F03B
:1050E00069FA2060B8F1000F01D0C8F80040BDE8AF
:1050F000F0872DE9F0471E46DDE9089417460D00BC
:1051000080460ED0002C14D0FFF7A4FEC4F8008017
:10511000C4E90657C4E90869201DBDE8F04701F05D
:10512000CCB9502080F31188BFF34F8FBFF36F8F3E
:10513000FEE7BDE8F087000030B5114900E01146F8
:105140000A688242FBD34B685C18844203D14068F2
:1051500018444860084643681C18944209D1084C1A
:10516000103C2468A24209D052681A4442600A687E
:1051700012680260814200D0086030BD0460F9E727
:105180000001002070B5002441600B4D0061914288
:1051900006D8D11A8269914206D2011D686807E0DB
:1051A0009A4203D2994201D3012403E0011D2868E9
:1051B00001F086F9204670BDD800002010B50446E5
:1051C00001F0A2F9A06B28B15FF0000401F0BCF976
:1051D000204610BD0124F9E730B589B0304D55E0C7
:1051E0000498002806DADDE90601059A904704983C
:1051F00000284BDB069C606910B1201D01F028F9E6
:1052000002A800F0B9F8024604980A283ED2DFE866
:1052100000F00505053D263705053D260598A169E1
:10522000034601442046FFF7ADFF00B3616A204604
:105230008847E069012829D1002000900598A169DC
:10524000002342181946204602F0DCF978B95020B4
:1052500080F31188BFF34F8FBFF36F8FFEE7059880
:10526000A06128B1811813462046FFF78BFF0DE09F
:10527000502080F31188BFF34F8FBFF36F8FFEE78D
:1052800094F82C0010B9204601F072F9002204A90C
:10529000A86801F091FD0028A2D109B030BD00003E
:1052A000D80000202DE9FC410F46054601F0F4FA34
:1052B00001A800F061F80446019818B102F0DEF888
:1052C000BDE8FC81224EAFB170680068A8B300272A
:1052D000291B3A46B06801F0C9F902F0CFF800285E
:1052E000EED11C494FF080500860BFF34F8FBFF3E1
:1052F0006F8FE5E7A542EBD802F0C0F8306827468B
:10530000C068C468201D01F0A3F8E069012810D12D
:10531000A0692B4641193A462046FFF733FF40B1BA
:1053200000200346014600902A46204602F06AF912
:1053300020B1616A20468847C2E707E0502080F329
:105340001188BFF34F8FBFF36F8FFEE70127BFE7D1
:10535000D800002004ED00E006484168096829B142
:105360004168C968C9684968016370474FF0FF31F7
:10537000FAE700009C00002070B5054601F062FFCE
:10538000064E04463069844203D200F009F8012039
:1053900000E0002028602046346170BDD800002065
:1053A000F8B5194D1FE0C068C4680668201D01F0FB
:1053B0004FF8616A20468847E069012813D1A06947
:1053C0003044B04206D924616060211D286801F094
:1053D00077F808E000200346014600903246204658
:1053E00002F010F938B1286801680029DBD169683A
:1053F000C5E90010F8BD502080F31188BFF34F8F2E
:10540000BFF36F8FFEE70000D80000200848406817
:10541000401C4FF0500080F3118804D0BFF34F8F31
:10542000BFF36F8FFEE7BFF34F8FBFF36F8FFEE7C2
:1054300008010020074C2068016841B1C0680021C4
:10544000D0F80000FFF72EFFFFF7C6FEF3E70121BB
:105450000020F7E7D80000202DE9F041044601F0D4
:1054600053F894F9455004F1240609E0606A48B104
:10547000304601F0CDFF08B101F048F96D1E6DB264
:10548000002DF3DC4FF0FF3684F8456001F05CF846
:1054900001F03AF894F9445004F1100709E020694A
:1054A00048B1384601F0B4FF08B101F02FF96D1E84
:1054B0006DB2002DF3DC84F84460BDE8F04101F0EA
:1054C00043B800002DE9F0410546002701F0E4F95A
:1054D000314E306808B9FFF74DFDF06805424BD1F9
:1054E000C5B3083568070ED005F00700C0F1080005
:1054F0000544680707D0502080F31188BFF34F8F11
:10550000BFF36F8FFEE72DB37068854234D8224811
:10551000103001460C6801E020460C466168A94243
:1055200002D221680029F7D131688C4224D0076863
:105530002168016060680837411B10290FD9601984
:10554000420708D0502080F31188BFF34F8FBFF37C
:105550006F8FFEE710E041606560FFF7EDFD616869
:105560007068401A7060B268904200D2B060F06813
:1055700001430020C4E9000101F080FF780707D053
:10558000502080F31188BFF34F8FBFF36F8FFEE77A
:105590003846BDE8F0810000F000002004490868AA
:1055A00018B10868026D521C026508687047000057
:1055B0009C00002010B5031F4FF080741C601B1F5F
:1055C00021F001011960191F024B0B60143940389A
:1055D0000A6010BD0D54000810B503A0FDF7C6FE0B
:1055E00009490120487010BDE8A7A6E58F91E6891A
:1055F00093E58DB0E8B685E697B6E99499E8AFAF44
:105600002E2E2E0D0A0000007800002070B5184DD7
:105610000A21286801F0BAFC012803D015A0FDF783
:10562000A5FE23E01648D0F89813C9B1491EC0F86A
:105630009813D0F89043611CC0F89013B1F5897F9E
:1056400002D90021C0F8901300231A461946286891
:1056500001F056FA0B4904EB440001EB001070BD59
:1056600000231A461946286801F04AFA002070BD46
:105670007000002074616B65206661696C0A00002F
:10568000403300204003002010B5FDF78DFAFDF7F0
:10569000D3FABDE81040FDF7B9BA0000044801781C
:1056A00019B10021017001207047002070470000EF
:1056B0004000002070B5164D164EA5F108044FF4B9
:1056C0000071207815F820203046FEF75FFD207825
:1056D000B11505EB800042783046FEF757FD207883
:1056E000802105EB800082783046FEF74FFD207860
:1056F000402105EB8000C2783046FEF747FD207858
:10570000401CC0B22070082801D30020207070BD5A
:105710004C000020000C014010B503A0FDF726FE50
:1057200006490120087010BD726561645F73746181
:105730007465206E6F772E2E2E0D0A0078000020E3
:1057400010B5FEF7FDFD04460079012812D1E0787E
:10575000032800D070B9002020710120E070FEF70E
:1057600075FCFEF7E1FD014606A0FDF7FFFD0320F5
:10577000FDF788FAE078012803D100F07FFB0320D1
:10578000E07010BD7265706F727420646576696335
:105790006520737461747573203A207072696E7439
:1057A000696E672073746172742025640D0A0000AD
:1057B00010B5FEF7D5FD40B1FEF78EFCFFF764FF94
:1057C000FEF7ACFD08B1FEF741FCFFF767FF0028CC
:1057D00006D004A0FDF7CAFDBDE81040FEF736BCB8
:1057E00010BD00007265706F727420646576696325
:1057F0006520737461747573203A207061706572EE
:10580000206972710D0A00002DE9F05F41F2111557
:10581000DFF8ECA3DFF8EC93DFF8ECB3AE10FB4C51
:1058200006285CD2DFE800F0035DACFEFCFB012241
:105830009102F748FEF7AAFC216800204862206820
:10584000016841F001010160A046F2480078FAF7D2
:1058500063FF00225346FAF7EBFE04460F46594613
:10586000D9F80000FAF7F7FCFAF790FF22463B461A
:10587000FAF76CFE0446D8F800000F46406AFAF7C3
:105880004BFF22463B46FAF795FFDED3D8F80000DF
:105890004446016A294206D1016A314203D10168B6
:1058A00021F00101016000224FF48061D848FEF729
:1058B0006DFC2168002048622068016841F0010108
:1058C00001602068416AC829FCD3016A294206D1D7
:1058D000016A314203D1016821F001010160BDE894
:1058E000F09F0122D102CA48FEF750FC2168002037
:1058F00048622068016841F001010160A046C54886
:105900000078FAF709FF00225346FAF791FE0446A1
:105910000F465946D9F80400FAF79DFCFAF736FF0E
:1059200022463B46FAF712FE0446D8F800000F461E
:10593000406AFAF7F1FE22463B46FAF73BFFDED318
:10594000D8F800004446016A294206D1016A314272
:1059500003D1016821F00101016000224FF40061D0
:10596000AB48FEF713FC21680020486220680168FC
:1059700041F0010101602068416AC829FCD3A4E715
:1059800001221103A248FEF701FC216800204862B1
:105990002068016841F001010160A0469D4800783F
:1059A000FAF7BAFE00225346FAF742FE04460F46C3
:1059B0005946D9F80800FAF74EFCFAF7E7FE2246F6
:1059C0003B46FAF7C3FD0746D8F800000C46406A8C
:1059D000FAF7A2FE3A462346FAF7ECFEDED3D8F8F1
:1059E00000004446016A294206D1016A314203D1CE
:1059F000016821F00101016000224FF480518448C8
:105A0000FEF7C4FB2168002048622068016841F06D
:105A1000010101602068416AC829FCD355E79FE075
:105A20004FE0FFE7012251037948FEF7AFFB216801
:105A3000002048622068016841F001010160A04631
:105A400074480078FAF768FE00225346FAF7F0FD32
:105A500004460F465946D9F80C00FAF7FCFBFAF752
:105A600095FE22463B46FAF771FD0446D8F8000041
:105A70000F46406AFAF750FE22463B46FAF79AFE76
:105A8000DED3D8F800004446016A294206D1016AF3
:105A9000314203D1016821F00101016000224FF47D
:105AA00000515B48FEF772FB2168002048622068C5
:105AB000016841F0010101602068416AC829FCD3F6
:105AC00003E7012291035248FEF760FB21680020A2
:105AD00048622068016841F001010160A0464D481C
